:020000040800F2
:1000000060E7002061020008C17E00085566000814
:10001000BD7E00086915000871DD000800000000C1
:10002000000000000000000000000000A101000826
:100030004B21000800000000FD0100085DB8000829
:100040007B0200087B0200087B0200087B0200089C
:100050007B0200087B0200084D2100087B0200089B
:100060007B02000857210008612100087B0200087C
:100070007B0200087B0200087B0200087B0200086C
:100080007B0200087B0200087B0200087B0200085C
:100090006D1500087B0200087B0200086B21000838
:1000A0007B0200087B0200087B0200087B0200083C
:1000B0007B0200087B0200087B0200087B0200082C
:1000C0007B0200087B0200087B0200087B0200081C
:1000D0007B0200087B0200087B020008FDBF0008CD
:1000E0007B0200087B0200087B0200087B020008FC
:1000F0007B0200087B0200087B020008451700080D
:100100007B0200087B0200087B0200087B020008DB
:100110007B0200087B0200087B0200087B020008CB
:100120007B020008C1170008D11700087B020008F5
:100130007B0200087B0200087B0200087B020008AB
:100140007D1500087B0200087B020008D9820008A8
:100150006920000879200008892000082DC10008C6
:100160007B0200087B0200087B0200087B0200087B
:100170007B0200087B0200087B02000800000000F0
:100180007B0200087B020008DFF810D000F020FCA2
:10019000004800476D2F0108AFF3008060E70020A2
:1001A0002C4B19680868B0E8F04F80F30988BFF35A
:1001B0006F8F4FF0000080F311887047000000003F
:1001C00008480068006880F308884FF0000080F35A
:1001D000148862B661B6BFF34F8FBFF36F8F00DF35
:1001E00000BF00BF08ED00E0DFF80C00016841F43B
:1001F00070010160704700BF88ED00E0EFF30980F7
:10020000BFF36F8F134B1A681EF0100F08BF20ED5D
:10021000108A20E9F04F106009B44FF0500080F3CD
:100220001188BFF34F8FBFF36F8F15F0A1FB4FF015
:10023000000080F3118809BC19680868B0E8F04F25
:100240001EF0100F08BFB0EC108A80F30988BFF3CE
:100250006F8F704704030020EFF3058070470000A4
:100260000648804706480047FEE7FEE7FEE7FEE750
:10027000FEE7FEE7FEE7FEE7FEE7FEE745B900081A
:10028000890100089FED1A1AF5EE000A40EE010AF6
:10029000BDEEE00AF5EEC00A10EE100AF1EE10FA1B
:1002A00038BF401E00EE100A1349F7EE001AB8EEF0
:1002B000C00A30EEC00ADFED0F0A20EE200AFCEE85
:1002C000C00A10EE900AC0F3080000EE900A01EB9D
:1002D0008000F8EE600A90ED011A70EE600A90ED71
:1002E000000A71EEE01A21EE800A00EE810A7047E2
:1002F00083F9223E00000044308F0108DFED190A27
:10030000B5EEC00A60EE200ABDEEE01A11EE100A4A
:10031000F1EE10FA38BF401E00EE100A1349F7EE56
:10032000001AB8EEC00A30EEC00ADFED0F0A60EE28
:10033000200ABCEEE00A10EE100AC0F3080000EE3E
:10034000100A01EB8000B8EE400A90ED011A70EE41
:10035000C00A90ED000A71EEE01A21EE800A00EE6C
:10036000810A704783F9223E00000044308F010863
:100370002DE9F05F0546002092469B4688460646DA
:10038000814640241BE0284641464746224600F06D
:1003900050FA53465A46C01A914110D31146184696
:1003A000224600F037FA2D1A67EB01084F46224625
:1003B0000120002100F02EFA17EB00094E41201E0B
:1003C000A4F10104DFDC484631462A464346BDE835
:1003D000F09F40EA01039B0703D009E008C9121F00
:1003E00008C0042AFAD203E011F8013B00F8013BEF
:1003F000521EF9D27047D2B201E000F8012B491E1B
:10040000FBD270470022F6E710B513460A460446B1
:100410001946FFF7F0FF204610BD421C10F8011BE3
:100420000029FBD1801A70472DE9FE4F804681EAF2
:100430000300C00F0C46009021F0004123F000455E
:10044000B8EB0200A94105D24046214690461C4621
:100450000B46024623F00040104347D0270DC7F358
:100460000A00C3F30A510290401A019040286BDA47
:10047000C3F3130040F4801B0098924620B1002380
:10048000D2EB030A63EB0B0B01985946C0F1400213
:10049000504600F0BFF906460D4650465946019AAF
:1004A00000F0D7F910EB08006141002487EA1152EF
:1004B00084EAE7731A4340D0009A62B3019A012A92
:1004C0004FEA075215DC001B61EB02014FF00042BE
:1004D00002EA0752CDE90042001C41F58011324684
:1004E0002B4600F00EFA03B0BDE8F08F40462146DF
:1004F000F9E7001B61EB0201001C41F580130018B5
:100500005B412018A2F5001747EB030140EAD570C4
:10051000B6196D4111E06D084FEA360645EAC0751F
:100520004FEA0752001B61EB0201001C41F58011EC
:1005300049084FEA30000019514132462B4603B0BA
:10054000BDE8F04F00F0CEB9009801224000002332
:10055000D0EB020263EBE073009821464FEAE074AF
:10056000B8EB000061EB0401E9E783F000435BE7CF
:1005700081F0004158E72DE9FE4F81EA030404F0C1
:10058000004421F0004100944FF0000B23F00043A1
:1005900050EA01045ED052EA03045BD0C3F30A546C
:1005A000C1F30A552C44A4F2F3340194A0FB025485
:1005B000C1F3130141F48011C3F3130343F4801317
:1005C00001FB024400FB034E840A970A44EA81546B
:1005D00047EA8357A4FB076802958D0A05FB078548
:1005E0004FEA932C04FB0C542705029D4FEA065852
:1005F00047EA1637B5EB08056EEB070C870E920E2F
:1006000047EA811742EA8312A7FB0201B6EB0B010E
:1006100064EB00042B0D43EA0C335E1844EB1C50D2
:10062000DA465146E7FB0201C5F313044FEA0B33E8
:1006300043EA14534FEA0432019C43EA0603A4F14F
:100640000C040294009CCDE900B400F05AF903B008
:10065000BDE8F08F00200146F9E72DE9F04D81EA71
:10066000030404F0004B21F0004514464FF0000A4B
:1006700023F0004150EA050220D054EA01021DD0C7
:10068000C5F30A570246C5F31303C1F31300C1F3C0
:100690000A5640F4801543F48013A7EB0608101B9C
:1006A000D64608F2FD3873EB050002D308F10108C5
:1006B00001E092185B41B8F1000F03DA0020014617
:1006C000BDE8F08D00204FF48011064684460EE010
:1006D000171B73EB050705D3121B63EB05030643DA
:1006E0004CEA010C49084FEA300092185B4150EA8D
:1006F0000107EDD152EA030012D082EA040083EA36
:100700000501084305D0101BAB4106D2012200238E
:1007100006E000224FF0004302E06FF001025310A8
:100720001AEB06004CEB085110EB0A0041EB0B01F1
:10073000BDE8F04D00F0D6B80EB5C10F80EAE0700C
:100740000844CA07002140F233438DE80E000A46F0
:100750000B4600F0D6F803B000BD00F0004230F0C8
:1007600000400AD0C10D01F56071C0F3160042EAE5
:100770000151C208400711437047002001467047ED
:1007800030B5041E71F1000404DB4FF00044404218
:1007900064EB0101141E73F1000405DB1C464FF0ED
:1007A0000043524263EB0403994208BF904230BDBC
:1007B00001F0004330B421F0004150EA010206D0BC
:1007C0000A0DA2F56072C1F31301002A02DC30BCED
:1007D00000207047440F44EAC104C100E01830BC57
:1007E00000EBC25000F047B830B50B460146002080
:1007F0002022012409E021FA02F59D4205D303FAE3
:1008000002F5491B04FA02F52844151EA2F1010263
:10081000F1DC30BD202A04DB203A00FA02F100208E
:1008200070479140C2F1200320FA03F3194390402E
:100830007047202A04DB203A21FA02F00021704799
:1008400021FA02F3D040C2F1200291400843194638
:100850007047202A06DBCB17203A41FA02F043EA20
:10086000E07306E041FA02F3D040C2F12002914069
:100870000843194670470029A8BF7047401C49002B
:1008800008BF20F00100704710B4B0FA80FC00FAF5
:100890000CF050EA010404BF10BC704749B1CCF120
:1008A000200421FA04F411FA0CF118BF01212143AC
:1008B0000843A3EB0C01CB1D4FEA00614FEA102067
:1008C00042BF002010BC704700EBC3501044002909
:1008D000A4BF10BC7047401C490008BF20F00100B5
:1008E00010BC704710B5141E73F1000408DA401CE8
:1008F00041F1000192185B411A4301D120F001003F
:1009000010BD2DE9F04D92469B4611B1B1FA81F22E
:1009100002E0B0FA80F220329046FFF77BFF0446F7
:100920000F4640EA0A0041EA0B0153465A46084383
:1009300013D0114653EA010019D0C8F140025046C5
:10094000FFF777FF05460E46504659464246FFF7E9
:1009500061FF084305D0012004E020463946BDE888
:10096000F08D0020054346EAE0762C4337430A9891
:100970006305E40AA0EB08000022FD0A44EA47549C
:100980000A3002D500200146E9E701051019694146
:10099000DDE9084500196941BDE8F04DA2E7C1F362
:1009A0000A52C1F3130140F2FF3341F480119A421D
:1009B00002DA00200146704740F233439A42A2F225
:1009C000334202DC5242FFF734BFFFF723BF00007F
:1009D000064C074D06E0E06840F0010394E807008C
:1009E00098471034AC42F6D3FFF7D2FBA497010826
:1009F000C497010870B58C1810F8015B15F0070357
:100A000001D110F8013B2A1106D110F8012B03E0A7
:100A100010F8016B01F8016B5B1EF9D12B0705D4AF
:100A20000023521E0DD401F8013BFAE710F8013BF8
:100A3000CB1A921C03E013F8015B01F8015B521E14
:100A4000F9D5A142D8D3002070BDD0ED000AF4EE54
:100A5000C00AF1EE10FA01DD80ED000AD0ED000AC7
:100A6000B1EE401AF4EEC10AF1EE10FA03D2F1EE43
:100A7000400AC0ED000A70474A494A6822F44032F1
:100A80004A604A6843681A434A6001684A6822F427
:100A900080724A6001684A68036942EA03224A6038
:100AA00001684A6822F040724A6001684A688368B7
:100AB0001A434A6001688A6822F400628A60016809
:100AC0008A68C3681A438A60816A6FF07062D14293
:100AD00014D001688A6822F070628A6001688A68AE
:100AE000836A1A438A6001688A6822F040528A60E9
:100AF00001688A68C36A1A438A6009E001688A68E3
:100B000022F070628A6001688A6822F040528A602E
:100B100001688A6822F002028A6001688A68037E9E
:100B200042EA43028A6090F8201089B101684A685D
:100B300042F400624A6001684A6822F460424A60F6
:100B400001684A68436A5B1E42EA43324A6004E035
:100B500001684A6822F400624A600168CA6A22F4A5
:100B60007002CA620168CA6A838B5B1E42EA035242
:100B7000CA6201688A6822F400728A6001688A6821
:100B800090F8303042EA43228A6001688A6822F491
:100B900080628A6001688A68406942EA80208860D1
:100BA000704700000023014010B52DED028BB0EE20
:100BB000408AB0EE480A0DF005F9BDEC028B10BD7D
:100BC00010B52DED028BB0EE408AF0EE608AF0EEAB
:100BD000680AB0EE480A0DF08BF9BDEC028B10BD2F
:100BE00010B52DED028BB0EE408AB0EE480AFFF74B
:100BF00049FBBDEC028B10BDF0EE400AF5EEC00AD9
:100C0000F1EE10FA02DDB0EE600A7047B1EE600A54
:100C1000FBE7000018B19FED020A80ED000A704763
:100C20000000000018B1B3EE060A80ED000A70471C
:100C300070B52DED0C8B84B006460C4615469FED25
:100C4000990AF0EE408A9FED970AB0EE409A9FED28
:100C5000950AF0EE40BA9FED930AF0EE409A9FEDB0
:100C6000910AB0EE40AA0EB104B11DB904B0BDECBA
:100C70000C8B70BD8C48FFF7CDFF8C48FFF7D2FF7F
:100C80008A48D0ED000A9FED8A1A60EE810AB0EE24
:100C9000600A00F02DF9F0EE408A28EEA80AF0EE86
:100CA000408A8248D0ED000AB0EE001A60EE810A58
:100CB0009FED7F1A60EE810AB0EE600A00F018F92D
:100CC000B0EE409A29EE090AB0EE409ADFED790ABB
:100CD000B7EE000A00EEA80ADFED770A00EEC90AB7
:100CE000DFED760A20EE200A754880ED000A6E4896
:100CF00090ED000ADFED730A80EE201AB7EE000ACD
:100D000031EE000A20EE000A6D48D0ED000A80EEB8
:100D1000801A6D4880ED001A94ED000AB5EEC00A05
:100D2000F1EE10FA0DD194ED010AB5EEC00AF1EE24
:100D300010FA06D194ED020AB5EEC00AF1EE10FAEF
:100D400046D09FED580AB0EE408A002001900290F4
:100D50000390D4ED000A60EEA00A94ED011AD4EDE0
:100D6000011A41EE210A94ED021AD4ED021A41EE65
:100D7000210AB0EE600A00F0A9F8B0EE408A94EDC6
:100D8000000A20EE080A8DED010A94ED010A20EE1A
:100D9000080A8DED020A94ED020A20EE080A8DED94
:100DA000030ADDED010AF1EE600AB0EE600AFFF71A
:100DB000FBFEF0EE409A9DED031AF0EE410A9DED28
:100DC000021AB0EE410AFFF7FBFEB0EE40AA07E0C0
:100DD0009FED340AF0EE409A9FED320AB0EE40AA41
:100DE00095ED000AB5EEC00AF1EE10FA0DD195EDC1
:100DF000010AB5EEC00AF1EE10FA06D195ED020A2D
:100E0000B5EEC00AF1EE10FA3CD0B0EE690A00F07F
:100E10006FF8B0EE408AB0EE690AFFF7E1FEB0EE7F
:100E200040DAB0EE4A0A00F063F8F0EE40AAB0EE05
:100E30004A0AFFF7D5FEB0EE40BA28EE2A0AD5EDF1
:100E4000010A20EE200AD5ED000A0DEE200A68EE18
:100E50000B0A95ED021A00EE810AB0EE40CA95ED3C
:100E6000010A20EE0B0AD5ED020A0AEEE00AF0EEC6
:100E700040CAF0EE6C0AB0EE4C0AFFF7A1FEF0EEAD
:100E800040BA03E09FED070AF0EE40BAB0EE4A1A0E
:100E9000F0EE690AB0EE6B0A30460EF01FF800BFA4
:100EA000E4E60000000000008C0400209004002014
:100EB00035FA8E3CC1BFAD3B9DF8C5362F7C1C4139
:100EC00094040020506CC24A9804002010B52DED07
:100ED000028BB0EE408AB0EE480A0DF069F9B7EE29
:100EE000001AC1EE000AB0EE600ABDEC028B10BD24
:100EF00010B52DED028BB0EE408AB0EE480AFFF738
:100F0000FDF9BDEC028B10BD2DE9F0412DED028BFA
:100F10009AB00546B0EE408A0E4617469846002025
:100F20001790189019901490159016904DB146B1E5
:100F30003FB1B8F1000F04D0B5EEC08AF1EE10FA5F
:100F400005D100201AB0BDEC028BBDE8F08196ED12
:100F5000000A8DED170A96ED010A8DED180A96ED3F
:100F6000020A8DED190A97ED000A8DED140A97ED2E
:100F7000010A8DED150A97ED020A8DED160A17AAE2
:100F800014A928460DF0DEFD402104A8FFF73AFA27
:100F900000200090019002900390002417A904A85B
:100FA00014F0A8F900BF30E004A800EB041090EDA5
:100FB000000AD5ED000A20EE200A04A800EB041078
:100FC000D0ED010A95ED011A00EE810A04A800EBAC
:100FD0000410D0ED020A95ED021A00EE810A04A871
:100FE00000EB0410D0ED030A95ED031A00EE810A20
:100FF00020EE080AF0EE000A80EE201A684600EBA8
:10100000840080ED001A601CC4B2042CCCDB0024E8
:1010100010E005EB840090ED000A684600EB8400C8
:10102000D0ED000A30EE200A05EB840080ED000AC6
:10103000601CC4B2042CECDB284612F05BFE0120DD
:1010400080E700001CB5002300930193B1F5805F99
:1010500050DD431A002B01DD431A00E00B1A00EEAD
:10106000103AB8EEC00A8DED000A9DED000ADFEDE2
:101070004B0AB4EEE00AF1EE10FA09DD41F6FF7317
:101080005B1A034400EE103AB8EEC00A8DED000A78
:10109000831A002B01DD831A00E0131A00EE103AC8
:1010A000B8EEC00A8DED010A9DED010ADFED3B0AA5
:1010B000B4EEE00AF1EE10FA09DD41F6FF731B1AF7
:1010C000134400EE103AB8EEC00A8DED010A9DED12
:1010D000000ADDED010AB4EEE00AF1EE10FA5CDD83
:1010E000A1F580512E4B1B685B1C2D4C23602D4BB2
:1010F000996652E0B1F5805F4FDC431A002B01DDA9
:10110000431A00E00B1A00EE103AB8EEC00A8DED5B
:10111000000A9DED000ADFED210AB4EEE00AF1EECF
:1011200010FA09DD41F6FF731B1A0B4400EE103A6A
:10113000B8EEC00A8DED000A831A002B01DD831A78
:1011400000E0131A00EE103AB8EEC00A8DED010A65
:101150009DED010ADFED110AB4EEE00AF1EE10FA9E
:1011600009DD41F6FF739B1A034400EE103AB8EE16
:10117000C00A8DED010A9DED000ADDED010AB4EE15
:10118000E00AF1EE10FA08DD01F58051044B1B680E
:101190005B1C034C2360034B99661CBD000080451B
:1011A000C00000201031002010B50122102102489B
:1011B00002F09FFB10BD00000000024010B50022AD
:1011C0001021024802F095FB10BD00000000024013
:1011D0007047000010B501221146024802F089FB59
:1011E00010BD00000004024010B500220121024899
:1011F00002F07FFB10BD00000004024010B54378F0
:101200001B021BB20478234300EE103AB8EEC01A5A
:101210001C4BD3ED001A21EE211A81ED001AC37880
:101220001B021BB28478234300EE103AB8EEC01ABA
:10123000144BD3ED001A21EE211A81ED011A4379E6
:101240001B021BB20479234300EE103AB8EEC01A19
:101250000C4BD3ED001A21EE211A81ED021A037A0C
:101260001B04C47943EA04238479234300EE903AB3
:10127000B8EE601ADFED041A21EE211A82ED001A91
:1012800010BD0000C002002000401C42704710B595
:101290000446204612F018F810BD10B5044620464A
:1012A0000FF0DAFC10BD00004278120212B203788F
:1012B0001A4300EE102AF8EEC00A144A92ED001A02
:1012C00060EE810AC1ED000AC278120212B2837880
:1012D0001A4300EE102AF8EEC00A0C4A92ED001AEA
:1012E00060EE810AC1ED010A4279120212B203795D
:1012F0001A4300EE102AF8EEC00A044A92ED001AD2
:1013000060EE810AC1ED020A70470000C4020020AD
:1013100010B50024FFF75CFFFFF7B8FF0DF068FF82
:1013200010B144F0800402E00DF0C8FE04430EF05A
:1013300057F910B144F0400402E00EF0D7F804432E
:10134000204610BD2DE9FC4105460E4617460020FB
:1013500000900190FFF732FF922000F0D1F80622B2
:101360006946122000F0ACF8FFF71EFF9DF801005F
:10137000000200B29DF8001040EA010400EE104A9D
:10138000B8EEC00A4C48D0ED000A20EE200A86EDE7
:10139000000A9DF80300000200B29DF8021040EA26
:1013A000010400EE104AB8EEC00A4348D0ED000A2E
:1013B00020EE200A86ED010A9DF80500000200B229
:1013C0009DF8041040EA010400EE104AB8EEC00A8D
:1013D0003948D0ED000A20EE200A86ED020AFFF718
:1013E00003FF08226946002000F06AF8FFF7F2FECA
:1013F0009DF800000F2838D19DF80300000200B2CC
:101400009DF8021040EA010400EE104AB8EEC00A4E
:101410002A48D0ED000A20EE200A85ED000A9DF84A
:101420000500000200B29DF8041040EA010400EE3D
:10143000104AB8EEC00A2148D0ED000A20EE200A7A
:1014400085ED010A9DF80700000200B29DF8061024
:1014500040EA010400EE104AB8EEC00A1748D0ED89
:10146000000A20EE200A85ED020AFFF7A7FEA2205F
:1014700000F046F802226946222000F021F8FFF72A
:1014800093FE9DF80000C0009DF8011040EA611431
:10149000B4F5806F02DBA4F5006004B200EE104AE0
:1014A000F8EEC00AB4EE001AB3EE070A00EE810AA5
:1014B00087ED000ABDE8FC81C0020020C4020020C4
:1014C00070B506460C46154646F0800000F018F848
:1014D00006E0552000F014F82070641C681EC5B2A8
:1014E000002DF6D170BD70B504460D4644F0800065
:1014F00000F006F8552000F003F8287070BD0000D9
:1015000001B582B04FF47A70012301AA02A90090BC
:10151000024804F02BFA9DF804000EBDBC0D00201B
:1015200010B502461378DB00547843EA6410B0F536
:10153000806F02DBA0F5006318B200EE100AF8EE2F
:10154000C00AB4EE001AB3EE070A00EE810A81ED7C
:10155000000A10BD70B505460C462846FFF7D0FFBF
:101560002046FFF7CDFF70BD00BFFEE710B5024873
:1015700001F045FA10BD0000E00B002010B5024854
:1015800001F03DFA10BD0000080C0020F8B5074638
:101590000C4615461E464FF400700D4908600020A9
:1015A0008860C86008200861380A0A4908704F70CE
:1015B000200A8870CC70280A08714D71300A887131
:1015C000CE716B460A460249034801F04BF8F8BD5C
:1015D0009C3D00204A020020E00B0020F8B50646A2
:1015E0000D46144640F2FF100D4908600020886047
:1015F000C86008200861300A0A4908704E70280A3D
:101600008870CD70200A08714C71200A8871CC71E5
:101610006B460A460249044801F024F8F8BD000070
:10162000843D002042020020E00B0020F8B5074670
:101630000C4615461E4640F2FF100D49086000207A
:101640008860C86008200861380A0A4908704F702D
:10165000200A8870CC70280A08714D71300A887190
:10166000CE716B460A460249034800F0FBFFF8BD05
:10167000B43D002052020020080C00200346042B39
:1016800015D007DC7BB1012B0ED0022B0DD0032B24
:1016900012D10BE0202B0BD0212B0AD0222B09D00A
:1016A000232B09D107E008E007E006E005E004E0AD
:1016B00003E002E001E000E000BF00BF002070474F
:1016C0000020704710B50022044905480AF0CDFEFD
:1016D000044903480AF0C3FE002010BDF023002097
:1016E0004C130020F01B002070B504460D46204628
:1016F000296812F041FB214603480AF0B0FE024877
:101700000AF08CFE002070BD4C1300202DE9F04142
:1017100004460D4600260A48D0F89072D7F8140205
:1017200010B10120BDE8F0812A46214604480AF0A4
:101730009CFE03480AF014FF06463046F2E700001C
:101740004C1300201B48406800F0006080B31A482A
:10175000406B00681949884205D94FF0006017496D
:101760004C3908601CE01448406B00681149B831DE
:10177000884205D94FF000601049503908600FE0E9
:101780000D48406B00680B495831884204D94FF02E
:1017900000600849C86003E04FF0006005498860B8
:1017A00005480068006840F4007003490968086053
:1017B0007047000000600240840C00205864024022
:1017C00010B5024801F098FD10BD00008C120020F9
:1017D00010B5FE48C06C0068FD49884276D9FC48C7
:1017E00054380068F949C96C0968FA4A914201D134
:1017F000202169E0F549C96C0968F54A483A9142E7
:1018000001D1202160E0F149C96C0968F14A6032D8
:10181000914201D1202157E0EC49C96C0968EC4A9A
:101820001832914201D120214EE0E849C96C096883
:10183000E84A1832914201D1C91445E0E349C96C24
:101840000968E34A303A914201D1C9143CE0DF49CA
:10185000C96C0968DF4A7832914201D1C91433E07A
:10186000DA49C96C0968DA4A3032914201D1C914A7
:101870002AE0D649C96C0968D64A3032914202D171
:101880004FF4001120E0D149C96C0968D04A183AD8
:10189000914202D14FF4001116E0CC49C96C09689D
:1018A000CC4A9032914202D14FF400110CE0C7496A
:1018B000C96C0968C64A4832914203D14FF40011FD
:1018C00002E003E04FF00061084070E1BF48C06CE7
:1018D0000068C049A831884276D9BD4858380068A8
:1018E000BA49C96C0968BB4A914201D1202169E01B
:1018F000B649C96C0968B64A483A914201D12021DB
:1019000060E0B249C96C0968B24A6032914201D1C3
:10191000202157E0AD49C96C0968AD4A183291429F
:1019200001D120214EE0A949C96C0968A94A1832A1
:10193000914201D1C91445E0A449C96C0968A44A7F
:10194000303A914201D1C9143CE0A049C96C096800
:10195000A04A7832914201D1C91433E09B49C96C45
:1019600009689B4A3032914201D1C9142AE0974953
:10197000C96C0968974A3032914202D14FF4001184
:1019800020E09249C96C0968914A183A914202D103
:101990004FF4001116E08D49C96C09688D4A9032E8
:1019A000914202D14FF400110CE08849C96C0968DA
:1019B000874A4832914203D14FF4001102E003E01C
:1019C0004FF000610840F2E08048C06C0068814937
:1019D0004831884276D97F48103840687B49C96CC5
:1019E00009687C4A914201D1202169E07749C96C9C
:1019F0000968774A483A914201D1202160E0734951
:101A0000C96C0968734A6032914201D1202157E0C4
:101A10006E49C96C09686E4A1832914201D1202181
:101A20004EE06A49C96C09686A4A1832914201D18C
:101A3000C91445E06549C96C0968654A303A914264
:101A400001D1C9143CE06149C96C0968614A783226
:101A5000914201D1C91433E05C49C96C09685C4A00
:101A60003032914201D1C9142AE05849C96C096841
:101A7000584A3032914202D14FF4001120E05349CC
:101A8000C96C0968524A183A914202D14FF40011C8
:101A900016E04E49C96C09684E4A9032914202D113
:101AA0004FF400110CE04949C96C0968484A4832B2
:101AB000914203D14FF4001102E003E04FF00061C6
:101AC000084074E04348103800684049C96C096810
:101AD000404A914201D1202168E03C49C96C096823
:101AE0003B4A483A914201D120215FE03749C96C15
:101AF0000968384A6032914201D1202156E03349C9
:101B0000C96C0968324A1832914201D120214DE056
:101B10002E49C96C09682F4A1832914201D1C91463
:101B200044E02A49C96C0968294A303A914201D1F6
:101B3000C9143BE02549C96C0968264A78329142AC
:101B400001D1C91432E02149C96C0968204A3032F8
:101B5000914201D1C91429E01C49C96C09681D4A88
:101B60003032914202D14FF400111FE01749C96C85
:101B70000968174A183A914202D14FF4001115E052
:101B80001249C96C0968134A9032914202D14FF44C
:101B900000110BE00D49C96C09680D4A48329142A9
:101BA00002D14FF4001101E04FF00061084000281D
:101BB0006FD00648C06C0068054988427BD903484D
:101BC000C06C00680349884208D105E0BC0D0020C4
:101BD0005864024010600240202068E0FE48C06C5B
:101BE0000068FE49884201D1202060E0FA48C06CBC
:101BF0000068FB49884201D1202058E0F648C06CBB
:101C00000068F6496031884201D120204FE0F24857
:101C1000C06C0068F2494839884201D1C01446E0DE
:101C2000ED48C06C0068ED491831884201D1C014FC
:101C30003DE0E948C06C0068E9491831884201D1AB
:101C4000C01434E0E448C06C0068E449783188424C
:101C500001D1C0142BE0E048C06C0068E049303985
:101C6000884202D14FF4001021E0DB48C06C0068CC
:101C7000DA493031884202D14FF4001017E0D648DB
:101C8000C06C0068D6493031884204D14FF400104E
:101C90000DE0DFE10FE0D048C06C0068CF49903123
:101CA000884202D14FF4001001E04FF00060CB49B0
:101CB000091F08606AE1C848C06C0068C84948311B
:101CC000884274D9C448C06C0068C54960398842EC
:101CD00001D1202066E0C048C06C0068BF4988423E
:101CE00001D120205EE0BC48C06C0068BC4988423D
:101CF00001D1202056E0B848C06C0068B749603177
:101D0000884201D120204DE0B348C06C0068B4493E
:101D10004839884201D1C01444E0AF48C06C006823
:101D2000AE491831884201D1C0143BE0AA48C06CCA
:101D30000068AB491831884201D1C01432E0A6488E
:101D4000C06C0068A5497831884201D1C01429E0EF
:101D5000A148C06C0068A2493039884202D14FF4D2
:101D600000101FE09C48C06C00689C4930318842DC
:101D700002D14FF4001015E09748C06C00689849F4
:101D80003031884202D14FF400100BE09248C06C11
:101D9000006892499031884202D14FF4001001E06E
:101DA0004FF000608D4908390860EFE0FFE78A488E
:101DB000C06C00688A491839884274D98648C06C5A
:101DC000006887496039884201D1202066E0824856
:101DD000C06C00688149884201D120205EE07E48C5
:101DE000C06C00687E49884201D1202056E07A48C4
:101DF000C06C006879496031884201D120204DE0F3
:101E00007548C06C006876494839884201D1C014D1
:101E100044E07148C06C006870491831884201D1B3
:101E2000C0143BE06C48C06C00686D4918318842B2
:101E300001D1C01432E06848C06C0068674978314D
:101E4000884201D1C01429E06348C06C006864492D
:101E50003039884202D14FF400101FE05E48C06C58
:101E600000685E493031884202D14FF4001015E01D
:101E70005948C06C00685A493031884202D14FF449
:101E800000100BE05448C06C0068544990318842FF
:101E900002D14FF4001001E04FF00060504970395A
:101EA000C86073E0FFE74C48C06C00684C4960397B
:101EB000884201D1202066E04748C06C006847494D
:101EC000884201D120205EE04348C06C006844494C
:101ED000884201D1202056E03F48C06C00683F494D
:101EE0006031884201D120204DE03B48C06C006841
:101EF0003B494839884201D1C01444E03648C06C9F
:101F0000006836491831884201D1C0143BE032489C
:101F1000C06C006832491831884201D1C01432E0E7
:101F20002D48C06C00682D497831884201D1C01419
:101F300029E02948C06C006829493039884202D11B
:101F40004FF400101FE02448C06C00682349303172
:101F5000884202D14FF4001015E01F48C06C0068A1
:101F60001F493031884202D14FF400100BE01A486B
:101F7000C06C006819499031884202D14FF40010BA
:101F800001E04FF00060164970398860154800780C
:101F900000F0020078B11348007820F002001149E7
:101FA00008700846007840F00400087001221146CD
:101FB0000D4801F09EFC0D48007800F00200E0B1F1
:101FC0000A48007820F002000849087008460078A6
:101FD00040F0040008700BE0BC0D002010640240CB
:101FE0007060024069010020000402406A01002084
:101FF00001221021184801F07CFC1848007800F0FC
:10200000020078B11548007820F0020013490870EA
:102010000846007840F004000870012210210E48A4
:1020200001F067FC10F0EEFB0D48007800F00400B2
:1020300080B10B48007820F0040009490870084678
:10204000007840F0080008700648006840F0010081
:102050000449086010BD0000000002406B01002030
:1020600069010020103C014010B5024801F044F91C
:1020700010BD0000CC11002010B5024801F03CF961
:1020800010BD0000EC12002010B5024801F034F938
:1020900010BD00006C11002001680A4BCAB2103A52
:1020A000A3FB02321209084B9B5CC365032A04D9C7
:1020B0006FF30901091D816502E06FF30901816574
:1020C000806D7047ABAAAAAA1C8F010801460020A8
:1020D0008A6A8B69002B0FD0B3F5005F1DD08AB3DD
:1020E000012A30D0022A2ED0032A04D1C96A11F065
:1020F000807F00D0012070471AB1012A07D0022A40
:10210000F9D1C96A11F0807FF5D001207047C96A02
:10211000B1F1C07FFAD1012070475AB1012A0BD02A
:10212000022A07D0032AF7D1C96AB1F1C07FF3D1DF
:102130000120704701207047C96A11F0807FFAD0F2
:1021400001207047FFE701207047704710B501205C
:1021500001F0AEFA10BD10B5082001F0A9FA10BDCB
:1021600010B5102001F0A4FA10BD10B5202001F028
:102170009FFA10BD704700000F48D0ED060AC0ED71
:10218000070AD0ED050AC0ED060AD0ED040AC0ED3D
:10219000050AD0ED030AC0ED040AD0ED020AC0ED35
:1021A000030AD0ED010AC0ED020AD0ED000AC0ED2D
:1021B000010A80ED000A7047F030002070B50A482F
:1021C0000468001D0568001D0668344454B10822E7
:1021D0000649204604F0D2FF042204491031284663
:1021E00004F0CCFF70BD0000107AFF1F72000020C9
:1021F00038B44FF0000CCDF800C090F83C20012A14
:102200001BD0012280F83C200A680724092A17D92C
:102210000368DD680A3A02EB420204FA02F225EA98
:102220000202DA600A788B680A3A02EB42029340B3
:102230000268D4682343D36014E038BC022070479E
:1022400003681D6902EB420204FA02F225EA020267
:102250001A610A788B6802EB4202934002681469A3
:10226000234313614A681F24072A15D203685D6B54
:10227000521E02EB820204FA02F225EA02025A63BB
:102280000A8893B20A79521E02EB820293400268D6
:10229000546B234353632CE00D2A15D203681D6B46
:1022A000D21F02EB820204FA02F225EA02021A634A
:1022B0000A8893B20A79D21F02EB82029340026825
:1022C000146B2343136314E00368DD6A0D3A02EBD9
:1022D000820204FA02F225EA0202DA620A8893B262
:1022E0000A790D3A02EB820293400268D46A2343D2
:1022F000D362184A184B04689C4206D10C68122C11
:1023000003D1546844F48004546004689C421CD196
:102310000B68102B01D0112B17D1536843F4000325
:1023200053600968102910D10C490D4A0968B1FBA6
:10233000F2F101EB810149000091009929B1009966
:10234000491E009100990029F9D180F83CC038BCA1
:102350000020704700230140002001409C00002025
:1023600040420F000068C06C704770B504460025FD
:10237000002C03D0206C002610B107E0012070BDB6
:10238000204600F01DF8666484F83C60206C10F074
:10239000100F04D0012584F83C60284670BD206CE5
:1023A00020F4885040F0020020642046FEF764FBD1
:1023B0006664206C20F0020040F001002064EAE72F
:1023C00010B586B00446142101A8FEF71BF8234976
:1023D000206888420FD100BF00200090204800688C
:1023E00040F480701E4908600846006800F4807060
:1023F000009000BF2FE01B49206888422BD100BF0E
:10240000002000901648006840F48060144908607D
:102410000846006800F48060009000BF00BF00BF65
:10242000002000900E481438006840F020000C494D
:10243000143908600846006800F02000009000BFD2
:1024400000BF08150190032002900020039001A90D
:10245000054801F039F906B010BD00000020014028
:102460004438024000220140001402402DE9F041AE
:1024700004460D46206881684FF0000711F4806F14
:102480000CD0806810F4807F08D0206C40F02000D1
:10249000206484F83C700120BDE8F08101F030FA3E
:1024A00006462068006810F0020F16D1B5F1FF3F14
:1024B0000ED025B101F024FA801BA84208D9206C67
:1024C00040F00400206484F83C700320BDE8F081F3
:1024D0002068006810F0020FE8D021686FF0120049
:1024E0000860206C40F4007020642068816811F05E
:1024F000405F15D1217E99B9C16A11F4700F03D0E4
:10250000806810F4806F0BD1206C20F48070206400
:10251000206C10F4805F03D1206C40F00100206437
:102520000020BDE8F081000081B00022009290F808
:102530003C10012908D0012180F83C1001688B680B
:1025400013F0010F03D016E0022001B070478B6832
:1025500043F001038B603549354B0968B1FBF3F15A
:1025600001EB41010091009929B10099491E0091A8
:1025700000990029F9D101688B6813F0010F51D03F
:10258000036C23F0010323F4C06343F480730364FA
:102590004B6813F4806F05D0036C23F4005343F4AD
:1025A00080530364036C13F4805F04D0436C23F006
:1025B0000603436400E0426480F83C201D4A6FF04B
:1025C00022030B60516811F01F0F1B4907D00068F0
:1025D000884227D1816811F0405F1FD022E0006857
:1025E000884212D0154A904204D1D1F8042312F047
:1025F0001F0F0AD0A0F18042B2F5913212D1D1F86A
:10260000041301F01F0110290CD2816811F0405F02
:1026100008D1816841F08041816003E0816841F028
:1026200080418160002001B0704700009C000020C4
:1026300040420F00002301400020014000210140E2
:1026400090F82020012A07D0022A05D0416A41F4DF
:102650008021416201207047006842691143416155
:102660000020704770B490F82040D0F800C0DCF82B
:1026700008C0012C08D0022C06D0416A41F4802108
:10268000416270BC012070470CF080640CF0006562
:102690002C4302D11CF0805F5FD0CCF3016CBCF105
:1026A000020F06D9416A41F40001416270BC012069
:1026B0007047012404FA0CF41C608B684FF4C0745A
:1026C0009BB1CD6804EB0C162B434D6843EAC50360
:1026D0000568AB514FF4C273066803EB0C130D6928
:1026E000F550097D012909D00DE00D88CB6804EB78
:1026F0000C1643EA45530568AB51EBE70168CD582A
:1027000045F48075CD501179D379557941EA03614B
:1027100093791B0443EA052319434FF4C6750368F4
:1027200005EB0C1559511178D37841EA0361937880
:1027300052781B0443EA022211434FF4C473026827
:1027400003EB0C13D150016804EB0C100A5842F053
:1027500001020A5070BC00207047416A41F4001128
:10276000416270BC0120704790F82020012A07D0F8
:10277000022A05D0416A41F480214162012070475C
:102780004248D0F8002242F00102C0F80022D0F8FE
:10279000002222F47C52C0F80022D0F800224B6ABA
:1027A00042EA0322C0F800220A7D012302F01F0240
:1027B00003FA02F2D0F81C329343C0F81C32CB6902
:1027C000D3B9D0F80C329343C0F80C32B1F80CC036
:1027D0004B686CF31F43D1F814C000EBCC0CCCF861
:1027E0004032B1F808C00B686CF31F43D1F814C035
:1027F00000EBCC0CCCF84432CB69012B1AD1D0F8C9
:102800000C321343C0F80C32B1F800C04B686CF3C3
:102810001F43D1F814C000EBCC0CCCF84032B1F817
:1028200008C0CB686CF31F43D1F814C000EBCC0C8C
:10283000CCF844328B697BB1D0F804321343C0F832
:1028400004320B6973B1D0F814321343C0F8143258
:10285000096A01290CD010E0D0F804329343C0F883
:102860000432EEE7D0F814329343C0F81432EFE7A5
:10287000D0F81C121143C0F81C12D0F8001221F03D
:102880000101C0F800120020704700000064004001
:10289000704710B490F820C0BCF1010F09D0BCF112
:1028A000020F06D0416A41F48021416210BC012030
:1028B000704739B1D0F800C0DCF810C01CF0030F2D
:1028C0007DD006E0D0F800C0DCF80CC01CF0030F8F
:1028D0007BD04FF4D87C04680CEB011C54F80C40FE
:1028E00004F004049460002C7DD0046854F80C407B
:1028F000E4085460046854F80CC0CCF3400CC2F8EF
:102900000CC04FF4DA7C04680CEB011C54F80C404A
:1029100004F00F041461046854F80C40C4F3072455
:102920009461046854F80CC04FEA1C4CC2F814C0FF
:102930004FF4DC72D0F800C002EB01125CF802C068
:1029400083F800C0D0F800C05CF802C04FEA1C2C2D
:1029500083F801C0D0F800C05CF802C04FEA1C4CFC
:1029600083F802C0D0F800C05CF80220120EDA70C2
:102970004FF4DE72D0F800C002EB01125CF802C026
:1029800083F804C0D0F800C05CF802C04FEA1C2CE9
:1029900083F805C0D0F800C05CF802C04FEA1C4CB8
:1029A00083F806C0D0F800C05CF80220120EDA717D
:1029B000F9B10068016941F02001016102E00BE01A
:1029C00003E010E010BC00207047416A41F40011A0
:1029D000416210BC01207047416A41F4001141621C
:1029E00010BC01207047046854F80C40640D14605A
:1029F00080E70068C16841F02001C160DEE72DE991
:102A0000F05F0546002428684669D0F8049087687E
:102A1000D0F80CA0D0F810B0D0F8188016F0010F44
:102A200054D017F0010F17D00121816017F0020F69
:102A300003D0284600F02CFC0EE017F0040F02D063
:102A40004FF4006408E017F0080F02D04FF48054F0
:102A500002E0284600F01BFC17F4807F19D029689B
:102A60004FF48070886017F4007F03D0284600F090
:102A700011FC0EE017F4806F02D044F4005408E01B
:102A800017F4006F02D044F4804402E0284600F0BE
:102A900000FC17F4803F19D029684FF4803088601B
:102AA00017F4003F03D0284600F0F6FB0EE017F4C1
:102AB000802F02D044F4004408E017F4002F02D025
:102AC00044F4803402E0284600F0E5FB16F0080FDD
:102AD00007D01AF0100F04D044F4007429681020B5
:102AE000C86016F0040F4FF0080707D01AF0080F5F
:102AF00004D02868C760284600F000FA16F0020FDC
:102B000007D02868C06810F0030F02D0284600F0F4
:102B1000F7F916F0400F07D01BF0100F04D044F463
:102B2000806429681020086116F0200F07D01BF080
:102B3000080F04D028680761284600F073FB16F0E0
:102B4000100F07D02868006910F0030F02D0284644
:102B500000F069FB16F4003F08D019F0100F05D003
:102B6000296810204860284600F05EFB16F4803F7C
:102B700007D019F0080F04D028684760284600F0F5
:102B80008CFB16F4004F4AD019F0040F44D016F411
:102B9000807F04D018F0010F01D044F0010416F436
:102BA000007F04D018F0020F01D044F0020416F4A4
:102BB000806F04D018F0040F01D044F0040416F420
:102BC000006F29D018F0700F26D008F07000402850
:102BD00015D006DC102809D020280AD0302816D1BC
:102BE0000AE050280ED0602811D10EE044F008040D
:102BF0000DE044F010040AE044F0200407E044F043
:102C0000400404E044F0800401E044F48074286847
:102C1000816921F070018161296804204860002CDD
:102C200005D0686A204368622846FFF731FEBDE898
:102C3000F09F70B50446002C03D094F8200010B12A
:102C400004E0012070BD204600F0A8F8206801686B
:102C500021F00201016000F053FE05462068406843
:102C60004FF0050610F0020F11D000F049FE401B96
:102C70000A2807D9606A40F40030606284F8206056
:102C8000012070BD2068406810F0020FEDD120686F
:102C9000016841F00101016000F032FE0546206844
:102CA000406810F0010F11D100F02AFE401B0A28E5
:102CB00007D9606A40F40030606284F82060012027
:102CC00070BD2068406810F0010FEDD0207E012813
:102CD0003FD02068016821F080010160607E0128FA
:102CE0003DD02068016821F040010160A07E0128EC
:102CF0003BD02068016821F020010160E07E0128BE
:102D000039D02068016841F010010160207F01285E
:102D100037D02068016821F008010160607F012838
:102D200035D02068016821F004010160E168A068E5
:102D3000626908432169114308436168491E0843D9
:102D40002168C86100206062012084F82000002012
:102D500070BD2068016841F080010160BEE7206815
:102D6000016841F040010160C0E72068016841F05E
:102D700020010160C2E72068016821F010010160B4
:102D8000C4E72068016841F008010160C6E72068D7
:102D9000016841F004010160C8E7000010B586B089
:102DA0000446142101A8FDF72DFB4E4920688842F6
:102DB00041D14D480068401C4B49086008460068F6
:102DC00001280FD100BF002000904848006840F063
:102DD0000070464908600846006800F000700090E6
:102DE00000BF00BF00BF00200090404810380068BE
:102DF00040F008003D49103908600846006800F0BE
:102E00000800009000BF00BF032001900220029044
:102E100000200390032004900920059001A9344864
:102E200000F052FC00220621142001F085FA142043
:102E300001F074FA54E02F492068884250D100BF55
:102E4000002000902948006840F080602749086011
:102E50000846006800F08060009000BF00BF224874
:102E60000068401C204908600846006801280FD10E
:102E700000BF002000901D48006840F000701B4912
:102E800008600846006800F00070009000BF00BFB6
:102E900000BF0020009015481038006840F0020084
:102EA0001249103908600846006800F002000090DE
:102EB00000BF00BF6020019002200290002003901C
:102EC000032004900920059001A90B4800F0FCFBA9
:102ED00000220621402001F02FFA402001F01EFAC6
:102EE00006B010BD006400403000002040380240B1
:102EF000000C0240006800400004024070470000DF
:102F000010B58AB0044601AB03AA00212046FFF7A2
:102F1000C0FCBE4884427DD10398A0F2012006285F
:102F200079D2DFE800F006050403527C00BF00BF41
:102F300000BF0398401EB64908700846007800EBB1
:102F40008000B44931F8100000B2B149097801EBB2
:102F50008101B04A02EB410108819DF805009DF80E
:102F6000041040EA0120AA49097801EB810122F806
:102F700011009DF807009DF8061040EA012000B2FC
:102F8000A349097801EB810102EB410148809DF8DA
:102F900009009DF8081040EA012000B29C49097818
:102FA00001EB810102EB410188809DF80A009849FC
:102FB000097801EB810102EB41018871944909789C
:102FC000491CC8B20DF070FE51E09248008D01B26C
:102FD000904801869DF805009DF8041040EA012004
:102FE0008C4908859DF807009DF8061040EA0120ED
:102FF00001B2884841859DF809009DF8081040EA13
:10300000012001B2834881859DF80A1080F82E10B6
:10301000052001E02CE029E00DF046FE27E07D4888
:10302000408E01B27B4841879DF805009DF8041051
:1030300040EA0120774948869DF807009DF8061070
:1030400040EA012001B2734881869DF809009DF88D
:10305000081040EA012001B26E48C1869DF80A10AE
:1030600080F8381006200DF01FFE00E000BFCAE017
:1030700069488442FBD10398A0F2052048B3012897
:1030800074D0022871D16548008800B26349088174
:103090009DF805009DF8041040EA01205F49088072
:1030A0009DF807009DF8061040EA012000B25B4938
:1030B00048809DF809009DF8081040EA012000B200
:1030C000564988809DF80A00887107200DF0ECFDB4
:1030D00098E00398A0F2052000EB8000504931F8F9
:1030E000100001B20398A0F2052000EB80004C4ACA
:1030F00002EB400001819DF805009DF8041040EAB4
:1031000001210398A0F2052000EB800022F81010A6
:103110009DF807009DF8061040EA012001B20398CF
:10312000A0F2052000EB800002EB400041809DF8FA
:1031300009009DF8081040EA012001B20398A0F2AE
:10314000052000EB800002EB400081809DF80A1012
:103150000398A0F2052000EB800002EB4000817193
:1031600008200DF0A1FD4DE000E04AE00398A0F238
:10317000052000EB80002A4931F8100001B20398C5
:10318000A0F2052000EB8000254A02EB40000181FF
:103190009DF805009DF8041040EA01210398A0F273
:1031A000052000EB800022F810109DF807009DF824
:1031B000061040EA012001B20398A0F2052000EBBE
:1031C000800002EB400041809DF809009DF8081046
:1031D00040EA012001B20398A0F2052000EB800034
:1031E00002EB400081809DF80A100398A0F20520B0
:1031F00000EB800002EB4000817109200DF054FDCE
:1032000000E000BF00BF0AB010BD0000E00B0020CE
:103210005A020020203D0020080C00207A3D0020AA
:10322000663D002070477047704770B5044694F8BB
:103230002000012805D0606A40F40020606201206F
:1032400070BD022084F820002068016821F001018F
:10325000016000F055FB05462068406810F0010F42
:1032600012D000F04DFB401B0A2808D9606A40F4D8
:1032700000306062052084F82000012070BD2068C5
:10328000406810F0010FECD10020606270BD704703
:1032900070477047704770477047704710B50446D5
:1032A000002C02D0607910B106E0012010BD002092
:1032B0002071204600F006F8022060710120607144
:1032C000002010BD08B50A4A016891420FD100BF25
:1032D000002100910749096841F48051054A1160B5
:1032E0001146096801F48051009100BF00BF08BD7C
:1032F00000300240303802402DE9F84304464FF0D8
:103300000008CDF8008076484FF416510068B0FBF5
:10331000F1F7A56D2E6894F85C00082101FA00F021
:10332000304211D02068026812F0040F0CD00268FD
:1033300022F00402026094F85C0001FA00F0A86038
:10334000606D40F00100606594F85C004FF0010989
:1033500009FA00F0304209D02168496911F0800F64
:1033600004D0A860606D40F00200606594F85C10C5
:1033700004208840304209D02168096811F0020F0A
:1033800004D0A860606D40F00400606594F85C10A3
:1033900010208840304224D02168096811F0080FBD
:1033A0001FD0A8602068016811F4802F0DD000683C
:1033B00010F4002F04D0A16C99B12046884710E08A
:1033C000216C71B1204688470BE0016811F4807FC1
:1033D00003D1016821F008010160216C09B1204688
:1033E000884794F85C1020208840304251D02168F2
:1033F000096811F0100F4CD0A86094F8350005282A
:103400000DD02068016811F4802F32D0006810F4CC
:10341000002F29D0E16B59B32046884739E0206856
:10342000016821F0160101602068416921F08001E6
:103430004161206C08B9A06C20B12068016821F0BE
:103440000801016094F85C003F2101FA00F0A860D7
:1034500084F8348084F83590216D00293ED001B085
:103460002046BDE8F0430847616C09B12046884713
:103470000FE0016811F4807F07D1016821F010018D
:10348000016084F8348084F83590E16B09B12046FE
:103490008847606D002821D0606D10F0010F15D0B5
:1034A000052084F835002068016821F001010160E1
:1034B0000098401C0090B84204D82068006810F0C2
:1034C000010FF5D184F8348084F83590E16C00293F
:1034D00004D001B02046BDE8F0430847BDE8F883BA
:1034E0009C0000202DE9F041044600F009FA054651
:1034F000DCB1002684F83460022084F835002068AE
:10350000016821F0010101602068006810F0010FDE
:1035100013D000F0F5F9401B052809D9202060657B
:10352000032084F83500BDE8F0810120BDE8F0817A
:103530002068006810F0010FEBD121680868234A69
:103540001040A3686268D4F810C01A43E36843EAE5
:103550000C031A4363691A43A3691A43E3691A43C4
:10356000236A1A431043626A042A03D1236BE26A76
:103570001A43104308602068406920F00701606A20
:1035800040EA0105012704280ED1A06A0543E06A3C
:1035900050B12046FEF79AFD30B14020606584F8B6
:1035A00035700120BDE8F081206845612046FEF7B6
:1035B00073FD94F85C103F2202FA01F181606665A8
:1035C00084F835700020BDE8F08100003F8010F0E5
:1035D00070B5044600F094F90546B4F1FF3F02D0FF
:1035E00004480078044400F08BF9401BA042FAD351
:1035F00070BD0000F802002010B50446102C14D154
:103600000B200DF051FB2248007840F001002049CA
:1036100008702048007840F001001E4908701E48DC
:103620000078A0B30FF0EEF831E0202C0ED10A2084
:103630000DF03AFB1948007840F001001749087076
:103640001548007818B30FF0DDF820E0082C09D1F8
:103650000C200DF029FB1248007840F001001049C1
:10366000087014E0012C12D112F06AFE01280ED06D
:103670000C490D48006812F093F80A48006830B110
:1036800020070A490860BFF34F8FBFF36F8F10BD4B
:103690006A0100206B0100206D01002069010020FB
:1036A0006C010020EC0100204401002004ED00E04A
:1036B00010B504490A68024202D00860FFF79CFF77
:1036C00010BD0000143C01402DE9F84F0022DFF846
:1036D0000082DFF80092DFF800A24FF0030E0F2700
:1036E000012303FA02F50B682B40AB427DD1D1F8E0
:1036F00004C0BCF1020F02D0BCF1120F12D14FEA8C
:10370000D20C00EB8C0CDCF820605407E40E07FAB6
:1037100004FB26EA0B06D1F810B00BFA04F434438C
:10372000CCF8204006684FEA420C0EFA0CF4A6438F
:1037300091F804B00BF0030B0BFA0CFB4BEA0606F6
:1037400006604E68012E05D0022E03D0112E01D046
:10375000122E11D18668A643D1F80CB00BFA0CFBDF
:103760004BEA06068660466826EA05050E79C6F32A
:103770000016964035434560C56825EA04048D6807
:1037800005FA0CFC4CEA040CC0F80CC0D1F804C0DB
:103790001CF0805F7DD0D8F800C04CF4804CC8F895
:1037A00000C0D8F800C00CF4804CCDF800C022F066
:1037B000030C0CF1804404F59834D4F808C895073C
:1037C0002D0F07FA05F62CEA0606A0F1804CBCF591
:1037D000003C64D0A0F1804CBCF5013C62D0A0F16B
:1037E000804CBCF5023C60D000E052E0A0F1804C7F
:1037F000BCF5033C5CD0A0F1804CBCF5043C5AD035
:10380000A0F1804CBCF5053C58D0A0F1804CBCF533
:10381000063C56D0A0F1804CBCF5073C54D04FF08C
:10382000080C0CFA05FC4CEA060CC4F808C8D9F8D8
:1038300000C02CEA030C4C6814F4803F01D04CEA21
:10384000030CC9F800C0254CD4F800C02CEA030CC6
:103850004D6815F4003F01D04CEA030CC4F800C0D9
:10386000DAF800C02CEA030C4C6814F4801F01D075
:103870004CEA030CCAF800C0194CD4F800C02CEA7A
:10388000030C4D6815F4001F01D04CEA030CC4F87A
:1038900000C0521C102AFFF423AFBDE8F88F4FF090
:1038A000000CBEE74FF0010CBBE74FF0020CB8E78D
:1038B0004FF0030CB5E74FF0040CB2E74FF0050CE6
:1038C000AFE74FF0060CACE74FF0070CA9E700009C
:1038D00044380240003C0140083C0140043C0140A7
:1038E0000C3C01400069084201D0012070470020D3
:1038F0007047002A01D081617047090481617047D7
:103900000148806870470000F802002070B5044646
:10391000002C04D094F83D00002510B106E00120F1
:1039200070BD84F83C50204600F086FB242084F8CB
:103930003D002068016821F00101016001F0BEFB3B
:10394000544B6168994203D85349884203D304E039
:103950005249884201D2012070BD5149B0FBF1F1BA
:103960002268D2F804C02CF03F0C4CEA010CC2F8DB
:1039700004C062689A4201D84A1C07E04FF496726C
:1039800051434FF47A72B1FBF2F14A1C2168D1F82D
:1039900020C02CF03F0C42EA0C020A626168994296
:1039A00010D84900401EB0FBF1F2521CC2F30B02CA
:1039B000042A01D2042026E0B0FBF1F0401CC0F341
:1039C0000B0020E0A268002A50D001EBC10303EBFA
:1039D0000113A0F1010CBCFBF3F35B1C43F4804327
:1039E0001B051B0D4AD0002A4AD001EBC10202EB95
:1039F0000111401EB0FBF1F0401CC0F30B0040F47D
:103A0000804040F400402168CA6922F0FF0222F49D
:103A10004F421043C861216AE0690143206802688F
:103A200022F0C00211430160E1682069014320686F
:103A3000826822F0FF0222F4034211438160A169EF
:103A4000606901432068C26822F0FF021143C1602F
:103A50002068016841F0010101602564202084F89C
:103A60003D00256384F83E50002070BD01EB41030A
:103A7000A0F1010CBCFBF3F35B1CB1E70120C2E732
:103A800001EB4101401EB0FBF1F0401CC0F30B0004
:103A9000B7E70000A086010080841E0000093D00F9
:103AA00040420F002DE9F84F04468A469046994659
:103AB0000A9FFFF725FF064694F83D00202802D014
:103AC0000220BDE8F88F192301224C4920460096B8
:103AD00003F0A4F810B10220BDE8F88F94F83C0080
:103AE000012808D0012084F83C002068016811F00A
:103AF000010F03D006E00220BDE8F88F016841F015
:103B0000010101602068016821F400610160212049
:103B100084F83D00102084F83E0000252564C4F898
:103B20002480A4F82A90608D20853548E0623346D1
:103B30003A465146204602F079FE10B10120BDE818
:103B4000F88F2068416980690090208D002846D058
:103B500032463946204603F060F950B1206C042803
:103B600004D12068016841F4007101600120BDE8C2
:103B7000F88F606A216800780861606A00F1010CC2
:103B8000C4F824C0608D401E6085208D401E80B228
:103B900020852268516911F0040F0CD058B19CF8AF
:103BA00000001061606A401C6062608D401E60858C
:103BB000208D401E208532463946204603F000F80D
:103BC00050B1206C042804D12068016841F40071D0
:103BD00001600120BDE8F88F208D0028B8D1206851
:103BE000016841F400710160202084F83D0084F8F0
:103BF0003E5084F83C500020BDE8F88F02001000D1
:103C00000000FFFF2DE9FF4F83B004468A4693462C
:103C1000DDF84490DDF84080129EFFF771FE054606
:103C200094F83D00202803D007B00220BDE8F08FB3
:103C300019230122A0492046009502F0EFFF18B198
:103C400007B00220BDE8F08F94F83C00012808D0AE
:103C5000012084F83C002068016811F0010F04D0B5
:103C600007E007B00220BDE8F08F016841F00101D4
:103C700001602068016821F400610160222084F85D
:103C80003D00402084F83E0000272764C4F82480CB
:103C9000A4F82A90608D20858848E06201950096FE
:103CA0005A4651462046069B02F012FE18B107B054
:103CB0000120BDE8F08F208D10B3012829D0022803
:103CC00035D02068416980690290208D002800F07D
:103CD000E880DFF8EC81208D032800F2B78001280E
:103CE00034D002284AD0334600224146204600956F
:103CF00002F094FF00286CD007B00120BDE8F08FDF
:103D00002068416981690291016841F40071016094
:103D1000DBE72068016821F4806101602068416967
:103D200081690291016841F400710160CDE720686A
:103D3000016821F4806101602068016841F400613C
:103D400001602068416980690290BEE72A463146D9
:103D5000204603F024F818B107B00120BDE8F08F29
:103D600020680069616A0870606A401C6062208D8A
:103D7000401E2085608D401E60858EE03346002207
:103D800041462046009502F049FF18B107B00120D6
:103D9000BDE8F08F2068016841F40071016020687F
:103DA0000069616A0870606A401C6062218D491E6A
:103DB0002185618D491E6185216809690170606AEC
:103DC000401C6062208D401E2085608D401E6085F5
:103DD00063E02068016821F4806101602068006967
:103DE000616A0870606A401C6062208D401E2085F8
:103DF000608D401E60853346002241462046009576
:103E000002F00CFF18B107B00120BDE8F08F206868
:103E1000016841F40071016020680069616A0870FE
:103E2000606A401C6062218D491E2185618D491E9A
:103E30006185216809690170606A401C6062208D9B
:103E4000401E2085608D401E608526E02A46314652
:103E5000204602F0A4FF18B107B00120BDE8F08FA2
:103E600020680069616A0870606A401C6062218D88
:103E7000491E2185618D491E61852268516911F0B5
:103E8000040F0AD011690170606A401C6062208DC5
:103E9000401E2085608D401E6085208D00287FF4A7
:103EA0001AAF202084F83D0084F83E7084F83C70FE
:103EB00007B00020BDE8F08F020010000000FFFFF7
:103EC000040001002DE9FF4F83B004468A46934663
:103ED000DDF84490DDF84080129EFFF711FD0546A5
:103EE00094F83D00202803D007B00220BDE8F08FF1
:103EF000192301224E492046009502F08FFE18B189
:103F000007B00220BDE8F08F94F83C00012808D0EB
:103F1000012084F83C002068016811F0010F04D0F2
:103F200007E007B00220BDE8F08F016841F0010111
:103F300001602068016821F400610160212084F89B
:103F40003D00402084F83E0000272764C4F8248008
:103F5000A4F82A90608D20853648E062019500968D
:103F60005A4651462046069B02F04CFD18B107B058
:103F70000120BDE8F08F208D002836D02A4631463A
:103F8000204602F04AFF58B1206C042804D1206872
:103F9000016841F40071016007B00120BDE8F08FB5
:103FA000606A216800780861606A00F1010CC4F859
:103FB00024C0208D401E80B22085618D491E618500
:103FC0002368596911F0040F0CD058B19CF8000017
:103FD0001861606A401C6062208D401E2085608DE3
:103FE000401E6085208D0028C8D12A4631462046D3
:103FF00002F0E6FD58B1206C042804D12068016865
:1040000041F40071016007B00120BDE8F08F206825
:10401000016841F400710160202084F83D0084F8BB
:104020003E7084F83C7007B00020BDE8F08F0000BF
:10403000020010000000FFFF10B586B004461421F6
:1040400001A8FCF7DFF973492068884230D100BF2E
:10405000002000907048006840F002006E4908603F
:104060000846006800F00200009000BF00BF4FF457
:1040700040700190122002900120039003200490D0
:104080000420059001A96548FFF71EFB00BF002032
:10409000009061481030006840F400105E49103113
:1040A00008600846006800F40010009000BFAFE010
:1040B0005B492068884259D100BF002000905648D3
:1040C000006840F02000544908600846006800F08D
:1040D0002000009000BF00BF03200190122002903A
:1040E00001200390032004900420059001A94D486D
:1040F000FFF7EAFA00BF0020009047481030006840
:1041000040F480004449103108600846006800F41B
:104110008000009000BF00BF4348444908604FF052
:10412000606048604021414881600021C1604FF4D7
:1041300080610161002141618161C1614FF4003101
:10414000016200214162FFF7CDF908B1FEF712F8D4
:1041500000BF36486063846300BF3548006840682C
:1041600040F4006032490968486051E031492068F4
:1041700088424DD100BF002000902748006840F0E1
:104180000400254908600846006800F0040000901B
:1041900000BF00BF00BF002000900846006840F04C
:1041A000010008600846006800F00100009000BFB0
:1041B00000BF4815019012200290012003900320B7
:1041C00004900420059001A91B48FFF77DFA4FF4E5
:1041D000807001901220029001200390032004902F
:1041E0000420059001A91548FFF76EFA00BF0020D2
:1041F000009009481030006840F400000649103172
:1042000008600846006800F40000009000BF00BF8E
:1042100006B010BD00540040303802400004024097
:104220000058004000140240B86002402C0D0020ED
:10423000840C0020005C00400008024000000240A6
:10424000024881680278114481607047F8020020BA
:1042500010B50B48016841F400710160016841F438
:1042600080610160016841F480710160032000F009
:1042700097F80F2000F006F800F026F8002010BD97
:10428000003C024070B504460D4D4FF47A71287819
:10429000B1FBF0F00B490968B1FBF0F001F062FCF2
:1042A00008B1012070BD102C07D200222146501EFB
:1042B00000F042F86C60002070BD012070BD00006D
:1042C000F80200209C00002008B500BF00200090EC
:1042D0001148006840F480400F49086008460068B3
:1042E00000F48040009000BF00BF00BF002000909D
:1042F000081F006840F08050091F086008460068E9
:1043000000F08050009000BF00BF00220F21901EDF
:1043100000F012F808BD00004438024000280ADB13
:1043200000F01F01012202FA01F14009800000F1B2
:10433000E020C0F80011704710B4184B1B68C3F39D
:104340000223C3F1070CBCF1040F01D94FF0040C98
:104350001C1D072C01D2002300E0DB1E012404FAFF
:104360000CFCACF1010C0CEA0101994004FA03F3D6
:104370005B1E1A401143002806DB00F1E020090112
:1043800080F8001410BC704700F00F0000F1E0202E
:10439000090180F8141D10BC704700000CED00E00E
:1043A00000F00700064A11684FF6FF03194041EA82
:1043B000002040F0FD7040F0806010607047000009
:1043C0000CED00E07047006841620020704730B497
:1043D0000368586A00291BD0D3F828C000EB1C4C96
:1043E00000200129A1F101014FF4827408D004EBEF
:1043F00080055D590CEB154C401CC0B28842F6D3C9
:1044000004EB81014CEA0240585030BC0020704758
:1044100040EA02409862F8E710B50446D4F8040474
:1044200008F0AAFB10BD70B504460D46C5EBC503E8
:1044300004F13C0101EB8301CA682946D4F8040465
:1044400008F0EAFA70BD70B504460D46C5EBC50329
:1044500004F5FE7101EB8301CA682946D4F804040F
:1044600008F045FB70BD10B50446D4F8040408F00C
:1044700085FB10BD70B5044611F0800F01F00F00F0
:10448000C0EBC00104EB81014FF001024FF00005C9
:1044900002D03C314A7002E001F5FE714D700870A7
:1044A00094F8BC03012808D084F8BC23206808F0E5
:1044B000BDFF84F8BC53002070BD022070BD70B5F4
:1044C000044601F00F026068824201D9012070BDEC
:1044D00001F00F00C0EBC00011F0800F04EB800072
:1044E0004FF001034FF0000503D000F13C014B7089
:1044F00002E000F5FE714D708D700A7094F8BC03F7
:10450000012808D084F8BC33206809F081F984F8C8
:10451000BC53002070BD022070BD01F00F01C1EB43
:10452000C10100EB8100D0F81402704770B5044659
:1045300011F0800F01F00F00C0EBC00104EB81010E
:104540004FF0010C4FF0000503D03C3181F801C061
:1045500002E001F5FE714D7008708A60CB704A78F8
:1045600002B1C880022B00D10D7194F8BC03012860
:1045700008D084F8BCC3206808F092FE284684F86E
:10458000BC5370BD022070BD10B50C4604F00F0C7A
:10459000CCEBCC0100EB810101F5FE71CA604B61EF
:1045A00000238B614B7081F800C00369012B00D19F
:1045B0000A6114F00F0F05D0027C006809F083F93E
:1045C000002010BD027C006809F05CF8F8E770B5C7
:1045D00004460D46616805F00F00884201D90120AC
:1045E00070BD15F0800F4FF000064FF0010206D0AD
:1045F000C0EBC00104EB81013C314A7006E0C5EB21
:10460000C50104EB810101F5FE714E708A700870DE
:1046100094F8BC03012808D084F8BC23206809F072
:1046200023F915F00F0F02D007E0022070BD217CA6
:1046300004F57172206809F0BBF884F8BC630020AF
:1046400070BD10B50C4604F00F0CCCEBCC0100EBA8
:1046500081013C31CA604B6100238B6101234B70A7
:1046600081F800C00369012B00D10A6114F00F0F1B
:1046700005D0027C006809F026F9002010BD027CFC
:10468000006808F0FFFFF8E72DE9F05F04462568B1
:10469000284609F069FA00287ED1206809F090FACE
:1046A000002879D0206809F08BFA10F0020F04D0AE
:1046B0002068416901F002014161206809F080FA37
:1046C00010F4002F4FF001094FF0080A4FF0100BC3
:1046D0004CD00026206809F052FA80465FEA0800B4
:1046E00044D018F0010F3BD0F1B2206809F060FA15
:1046F000074617F0010F07D005EB4610C0F8089BDE
:104700003146204603F024FE17F0080F07D031464B
:10471000204603F0E9FD05EB4610C0F808AB17F0A2
:10472000100F03D005EB4610C0F808BB17F0200FA0
:104730000DD02069012805D104F57172012120688E
:1047400009F036F805EB46112020C1F8080B17F4E4
:10475000005F05D005EB46114FF40050C1F8080B7F
:10476000761C4FEA5808B8F1000FBAD1206809F05A
:1047700027FA10F4802F64D0206809F0F9F9074671
:104780000026002F5DD017F0010F56D0F1B220683F
:1047900009F0FCF9804600E08BE118F0010F27D00A
:1047A00006F00F0009FA00F0D5F834188143C5F877
:1047B000341805EB4610C0F808992069012807D184
:1047C000C6EBC60004EB8000426C816C114481642E
:1047D000F1B22046FFF727FE2069012808D13EB933
:1047E000206D28B904F571720121206808F0E0FFFE
:1047F00018F0080F03D005EB4610C0F808A918F010
:10480000100F03D005EB4610C0F808B918F0400FA0
:1048100004D005EB46114020C1F8080918F0020F3A
:1048200004D005EB46110220C1F8080918F0800FEA
:1048300003D03146204603F003FE761C7F08002F8C
:10484000A1D1206809F0BCF910F0004F11D0D5F8C3
:10485000040820F00101C5F8041894F8F4030128B5
:104860005BD0204600F046FA2068416901F0004123
:104870004161206809F0A4F910F4006F0CD0D5F85C
:10488000080810F0010F02D0204600F07FFA2068DF
:10489000416901F400614161206809F091F910F467
:1048A000805F60D0D5F8040820F00101C5F8041835
:1048B0001021206809F034F900216068002817D918
:1048C0004FF67F3205EB4110C0F80829D0F80039C7
:1048D00023F40013C0F80039C0F8082BD0F8003BCF
:1048E00023F40013C0F8003B491C60688842E9D8F3
:1048F000D5F81C0840F00111C5F81C18206BA0B1B8
:10490000D5F8840840F00B01C5F88418D5F84408A0
:1049100040F00B01C5F8441814E0002084F8F403BB
:1049200000212046FFF74EFD9EE7D5F8140842F21D
:104930002B010143C5F81418D5F8100840F00B01FD
:10494000C5F81018D5F8000820F4FE61C5F8001865
:10495000217C04F57172206808F02AFF2068416903
:1049600001F480514161206809F02AF910F4005FD8
:1049700016D0206808F0E2FC206809F0E5F8E06055
:1049800000F096FB23680146227B184609F05EF989
:10499000204600F097F92068416901F40051416117
:1049A000206809F00DF910F0100F36D020688169E9
:1049B00021F0100181612F6A07F00F00C0EBC000E9
:1049C00004EB800000F5FE76C7F34340022802D0D6
:1049D000062812D01CE047F6F070074218D0C7F343
:1049E0000A1217462846F16809F0EEF8F0683844D4
:1049F000F060B0693844B0610AE0082204F57171D2
:104A0000284609F0E1F8B069C7F30A110844B0611B
:104A10002068816941F010018161206809F0D0F8B7
:104A200010F0080F07D0204600F06BF920684169AC
:104A300001F008014161206809F0C2F810F4801FFC
:104A400008D00021204600F036F82068416901F4C2
:104A500080114161206809F0B3F810F4001F08D0FC
:104A60000021204600F030F82068416901F400116F
:104A70004161206809F0A4F810F0804F07D020466B
:104A8000FFF7CAFC2068416901F08041416120685C
:104A900009F096F810F0040F0BD02068456815F067
:104AA000040F02D02046FFF7DEFC2068416829434E
:104AB0004160BDE8F09F70B504460D462946D4F824
:104AC000040408F0BFF870BD70B504460D462946D1
:104AD000D4F8040408F0B8F870BD2DE9F0478AB0A6
:104AE0000446002C05D0266894F8BD03002520B1AB
:104AF00008E00AB00120BDE8F08784F8BC532046E6
:104B000000F08CF8032084F8BD03F06B10F4807F74
:104B100000D12561206808F0AFFD04F11000D4F841
:104B20002C8090E80F10A76A666A8DE80F10CDF808
:104B30001C8006970596616B206B0991089094E89C
:104B40000F0008F015FC022728B184F8BD730AB0E5
:104B50000120BDE8F0870021206809F047F8002116
:104B600060680126002813D9C1EBC10004EB800066
:104B700080F83D6080F83C10A0F8421080F83F506B
:104B8000456485640565481CC1B260688842EBD8FD
:104B900000216068002814D9C1EBC10004EB80003B
:104BA00080F8FD5180F8FC1180F8FF51C0F80452E4
:104BB000C0F80852C0F81052481CC1B26068884260
:104BC000EAD804F11000D4F82CA090E80F10D4F823
:104BD0002890D4F824808DE80F10CDF81CA0CDF8D3
:104BE0001890CDF81480616B206B0991089094E8BF
:104BF0000F0008F07BFC28B184F8BD730AB00120D7
:104C0000BDE8F08784F8385084F8BD63206808F068
:104C100061FC0AB00020BDE8F087000010B586B046
:104C20000446142101A8FBF7EDFB2068B0F1A04F6A
:104C300042D100BF002000902048006840F00100F1
:104C40001E4908600846006800F00100009000BF9F
:104C500000BF4FF4C050019002200290002003904A
:104C6000032004900A20059001A91548FEF72CFDA9
:104C700000BF1248001D006840F080000F49091D68
:104C8000086000BF002000900C481430006840F419
:104C900080400A49143108600846006800F48040EA
:104CA000009000BF00BF00BF002205214320FFF796
:104CB00043FB4320FFF732FB06B010BD3038024003
:104CC0000000024070B504460125E06808B90025DF
:104CD00006E0E068022801D1012501E0FDF74AFA6B
:104CE0002946D4F8040408F01CF8D4F8040407F0AA
:104CF000DDFF70BD10B50446D4F8040407F0FFFFD3
:104D000010BD10B50446D4F8040407F0FEFF10BD32
:104D100010B5044694F8BC0301280BD0012084F898
:104D2000BC0384F83810206808F078FF002084F86D
:104D3000BC0310BD022010BD10B5044604F571710E
:104D4000D4F8040408F003F810BD10B50446206838
:104D500094F8BC13012906D0012184F8BC13A16A80
:104D6000012902D008E0022010BDA169012903D069
:104D7000816B41F480318163206808F09FFB2068DB
:104D800008F0B5FE002084F8BC0310BD10B5044641
:104D9000D4F8040408F02CF82068D0F8000E40F095
:104DA00001002168C1F8000E206A28B1034800689C
:104DB00040F006000149086010BD000010ED00E061
:104DC0002DE9F84304464FF0010820784FF0000722
:104DD00010F0050F33D0DFF84491C9F86870FEF782
:104DE0008FFD06464E4D286810F0006F0BD0FEF781
:104DF00087FD801B022802D90320BDE8F8832868BC
:104E000010F0006FF3D16068217A800140EA0170F0
:104E100044490860C9F86880FEF772FD06462868B4
:104E200010F0006F0BD1FEF76BFD801B022802D93A
:104E30000320BDE8F883286810F0006FF3D02078D5
:104E400010F0020F5CD03848016841F080510160D9
:104E5000006800F080500090344D286840F4807065
:104E60002860FEF74DFD0646286810F4807F0BD1C0
:104E7000FEF746FD801B022802D90320BDE8F88317
:104E8000286810F4807FF3D0294D286800F4407022
:104E900028B3A18901F44071814220D0286820F410
:104EA00040702449C1F800800F602860286810F025
:104EB000010F14D0FEF724FD0646286810F0020FFB
:104EC0000DD141F28837FEF71BFD801BB84202D995
:104ED0000320BDE8F883286810F0020FF3D0E068E3
:104EE0004FF4407131EA000213490CD0086820F4F5
:104EF000F81008602868A189C1F30B0108432860F5
:104F00000020BDE8F8830A6820F4407022F4F8120B
:104F100020F0704010430860ECE7000000004742BA
:104F2000003802408438024040380240007000409F
:104F300070380240400E4742083802402DE9F047E1
:104F400004460D46002C13D0DFF85091D9F800002C
:104F5000EFB200F00F00A8420DD289F80070D9F826
:104F6000000000F00F00A84205D00120BDE8F08746
:104F70000120BDE8F0872068494E10F0020F14D0E0
:104F800010F0040F03D0306840F4E0503060207817
:104F900010F0080F03D0306840F460403060306893
:104FA000A16820F0F00008433060207810F0010F75
:104FB0003ED060683B49012808D002280DD0032864
:104FC0000BD0096811F0020F28D00AE0096811F42B
:104FD000003F06D10120BDE8F087096811F0007F8D
:104FE00019D0316821F0030108433060FEF788FCD6
:104FF00080463068616800F00C00B0EB810F17D07C
:1050000041F2883AFEF77CFCA0EB0800504508D935
:105010000320BDE8F0870120BDE8F0870120BDE84E
:10502000F0873068616800F00C00B0EB810FE9D1C7
:10503000D9F8000000F00F00A8420AD989F80070E2
:10504000D9F8000000F00F00A84202D00120BDE80E
:10505000F087207810F0040F05D03068E16820F464
:10506000E05008433060207810F0080F06D0306818
:10507000216920F4604040EAC100306000F03EF851
:105080003168094AC1F30311515CC84007490860FF
:105090000F20FFF7F7F80020BDE8F087003C024042
:1050A0000838024000380240446801089C00002093
:1050B00001480068704700009C00002000B5FFF721
:1050C000F7FF04490968044AC1F38221515CC840D2
:1050D00000BD0000083802405468010800B5FFF721
:1050E000E7FF04490968044AC1F34231515CC840F2
:1050F00000BD0000083802405468010810B5174888
:10510000006810F00C01164816D0164B042912D076
:10511000082911D1144C216801F03F02216811F4D3
:10512000800F0AD02068C0F38810A0FB0301002381
:10513000FBF71EF909E0184610BD21680023C1F3F2
:105140008811A1FB0001FBF713F92168C1F30141AC
:10515000491C4900B0FBF1F010BD000008380240C6
:105160000024F400001BB700043802402DE9F84F7A
:105170000446002C10D02078FA4D10F0010F64D0B6
:10518000F948016801F00C0104290DD0006800F015
:105190000C00082803D011E00120BDE8F88FF34887
:1051A000006810F4800F09D0286810F4003F4CD03C
:1051B0006068002849D10120BDE8F88F6068B0F52B
:1051C000803F14D0B0F5A02F16D0286820F480308E
:1051D0002860286820F480202860606810B3FEF7FB
:1051E0008FFB0646286810F4003F0ED02DE028689B
:1051F00040F480302860F0E7286840F48020286080
:10520000286840F480302860E7E7FEF779FB801BD0
:10521000642802D90320BDE8F88F286810F4003F05
:10522000F3D012E0FEF76CFB0646286810F4003F4E
:105230000BD0FEF765FB801B642802D90320BDE874
:10524000F88F286810F4003FF3D12078C84F10F091
:10525000020F4FF0000856D0C348016811F00C0F40
:1052600015D0006800F00C00082804D1BF48006881
:1052700010F4800F0BD0E06878B301203860FEF79F
:105280003FFB0646286810F0020F12D01DE0286888
:1052900010F0020F05D0E068012802D00120BDE81F
:1052A000F88F2868216920F0F80040EAC1002860E2
:1052B00029E0FEF725FB801B022802D90320BDE868
:1052C000F88F286810F0020FF3D02868216920F0C9
:1052D000F80040EAC100286015E0FFE7C7F8008049
:1052E000FEF70EFB0646286810F0020F0BD0FEF703
:1052F00007FB801B022802D90320BDE8F88F28682D
:1053000010F0020FF3D1207810F0080F33D0994835
:10531000DFF864926169B9B101210160FEF7F0FA2A
:105320000646D9F8000010F0020F24D1FEF7E8FA83
:10533000801B022802D90320BDE8F88FD9F80000AD
:1053400010F0020FF2D016E0C0F80080FEF7D8FA95
:105350000646D9F8000010F0020F0CD0FEF7D0FA84
:10536000801B022802D90320BDE8F88FD9F800007D
:1053700010F0020FF2D1207810F0040F73D04FF02C
:105380000009DFF8F8A1DAF8000010F0805F0CD116
:10539000DAF8000040F08050CAF80000DAF80000A7
:1053A00000F0805000904FF00109DFF8D4B1DBF835
:1053B000000010F4807F1AD1DBF8000040F4807008
:1053C000CBF80000FEF79CFA0646DBF8000010F46C
:1053D000807F0CD1FEF794FA801B022802D90320AB
:1053E000BDE8F88FDBF8000010F4807FF2D0A068F1
:1053F000DFF890B1012818D005281DD0DBF8000097
:1054000020F00100CBF80000DBF8000020F00400E1
:10541000CBF80000A06838B3FEF772FA0646DBF856
:10542000000010F0020F14D03CE0DBF8000040F068
:105430000100CBF80000EDE7DBF8000040F00400CD
:10544000CBF80000DBF8000040F00100CBF80000D2
:10545000E0E7FEF755FA811B41F28830814204D91A
:105460000320BDE8F88F26E005E0DBF8000010F02F
:10547000020FEED016E0FEF743FA0646DBF8000016
:1054800010F0020F0ED0FEF73BFA811B41F288307C
:10549000814202D90320BDE8F88FDBF8000010F04C
:1054A000020FF0D1B9F1010F05D1DAF8000020F0B8
:1054B0008050CAF80000A069E8B32B49096801F0E0
:1054C0000C0108296BD0022810D0C7F86080FEF7C5
:1054D00017FA0446286810F0007F5ED0FEF710FA35
:1054E000001B022855D90320BDE8F88FC7F860805B
:1054F000FEF706FA0646286810F0007F0BD0FEF78C
:10550000FFF9801B022802D90320BDE8F88F286824
:1055100010F0007FF3D1216AE069A26A0843616A52
:105520004FF0FF33890103EB520241EA0241084385
:1055300094F82C1000E030E040EA01610B48016073
:1055400001203866FEF7DCF90446286810F0007F79
:1055500023D1FEF7D5F9001B022815D90320BDE899
:10556000F88F1CE00038024008380240043802403E
:1055700000004742800E47427438024040380240E3
:105580000070004070380240286810F0007FE0D0C2
:1055900003E0286810F0007FA0D10020DFE70120A1
:1055A000DDE770B50446002C03D06079002510B10A
:1055B00005E0012070BD2571204600F00DF80220A5
:1055C00060712068016841F0040101600120607190
:1055D000A560002070BD000008B50A4A016891422C
:1055E0000FD100BF002100910749096841F0400137
:1055F000054A11601146096801F04001009100BFA1
:1056000000BF08BD000806503438024070B504469B
:10561000002C02D0607F10B106E0012070BD002098
:105620002077204600F050F8022060772168CA20D9
:105630004862216853204862204603F0E5FAFF25BE
:10564000042620B1206845626677012070BD20687D
:10565000816821F0400121F4E001816020688168C7
:1056600062686369114322691A43114381602168AA
:10567000E068086120680169228941EA024101610C
:105680002068C16821F08001C1602068806810F046
:10569000200F08D1204600F023F820B12068456291
:1056A0006677012070BD2068016C21F480210164BF
:1056B0002068016CA26911430164206845620120E1
:1056C0006077002070BD0000034A0168914202D15A
:1056D0000121024A11607047002800403C0E4742F9
:1056E00070B504462068C16821F0A001C160FEF7D2
:1056F00007F905462068C06810F0200F0CD1FEF7AE
:10570000FFF8401BB0F57A7F01D9032070BD2068F7
:10571000C06810F0200FF2D0002070BD70B50446B4
:10572000002C05D00025A56294F8510010B106E0C8
:10573000012070BD84F85050204600F031F802205E
:1057400084F851002068016821F040010160A168DF
:10575000606822690843E1681143084361690843AE
:10576000218B01F400710843E1690843216A084371
:10577000A16A084321680860A069042101EA104079
:10578000616A0843216848602068C16921F40061AA
:10579000C1616565012084F85100002070BD0000E2
:1057A00010B586B00446142101A8FAF72BFE67490C
:1057B000206888427ED100BF0020009064480068C5
:1057C00040F48050624908600846006800F4805048
:1057D000009000BF00BF00BF002000905C4814385C
:1057E000006840F002005A49143908600846006811
:1057F00000F00200009000BF00BF00BF002000903A
:105800000846006840F0010008600846006800F0A3
:105810000100009000BF00BF1820019002200290FC
:1058200001200390032004900520059001A9494818
:10583000FDF74AFF80200190022002900120039092
:10584000032004900520059001A94348FDF73CFF83
:105850004248434908604FF0C0604860002140481A
:105860008160C1604FF4806101610021416181610B
:10587000C1614FF44031016200214162FDF732FE07
:1058800008B1FCF777FC00BF3548E064846300BFD3
:1058900032481830334908604FF0C06048604021FA
:1058A000304881600021C1604FF4806101610021B6
:1058B000416100E010E08161C1614FF4003101629B
:1058C00000214162FDF70EFE08B1FCF753FC00BF5A
:1058D0002448A064846336E023492068884232D19A
:1058E00000BF002000901A48001F006840F480406C
:1058F0001749091F08600846006800F480400090BE
:1059000000BF00BF00BF002000901148143800689D
:1059100040F002000E49143908600846006800F0A3
:105920000200009000BF00BF4FF4604001900220D1
:10593000029001200390032004900520059001A906
:105940000448FDF7C1FE06B010BD00000030014064
:10595000443802400004024000000240406402401B
:105960006C0E0020CC0E0020003800402DE9F84FCE
:1059700004460A9E8A4693461F4601254FF00008BA
:1059800094F8500001280ED0012084F85000FDF753
:10599000B7FF814694F85100616801280ED0B1F537
:1059A000827F07D102E00220BDE8F88FA16809B923
:1059B000042803D04FF0020800F0CBB8BAF1000F72
:1059C0001DD0BBF1000F1AD0380018D094F8510048
:1059D000042802D0052084F8510000206065C4F836
:1059E00038B0E787A787C4F830A0E786A786206489
:1059F00060642068016811F0400F03D006E04FF0AA
:105A00000108A6E0016841F040010160E068B0F5DE
:105A1000006F05D06068002848D0012F46D07EE096
:105A2000606808B1012F3AD1206B21680088C860F6
:105A3000206B801C2063E08E401EE0862FE02068F3
:105A4000816811F0020F0DD0E18E59B1012D09D1FD
:105A5000216B0988C160206B801C2063E08E401E92
:105A6000E08600252068816811F0010F0BD0E18FDE
:105A700049B1C068A16B0880A06B801CA063E08F57
:105A8000401EE0870125FDF73BFFA0EB0900B04277
:105A900005D3B6F1FF3F02D04FF0030859E0E08E86
:105AA0000028CCD1E08F0028C9D13EE0206B2168CE
:105AB00000780873206B401C2063E08E401EE08657
:105AC0002DE02068816811F0020F0DD0E18E59B1F0
:105AD000012D09D1216B09780173206B401C2063D3
